S017000064696F2D6D6F64756C652D636F64652E7372656356
S11300000C9482000C9455020C947C020C94AA006B
S11300100C94AA000C94AA000C94AA000C94AA00B4
S11300200C94AA000C94AA000C94AA000C94AA00A4
S11300300C94AA000C94AA000C94AA000C94AA0094
S11300400C94A3020C94AA000C94CB0A0C94FD0A01
S11300500C94AA000C94AA000C94AA000C94AA0074
S11300600C94AA000C94AA005706F0055B06F3054D
S1130070F605F905FD0500060306060609060C0645
S11300800F061206150619061C061F065F062D0626
S1130090300655063306550637063A063E0655061B
S11300A055064106450648064C064F0655065206B7
S11300B00000000800020100000304070000000023
S11300C0000000000102040810204080010204081E
S11300D0102001020408102004040404040404048D
S11300E002020202020203030303030300000000EE
S11300F0250028002B0000000000240027002A000F
S113010014022D0B11241FBECFEFD8E0DEBFCDBFEC
S113011013E0A0E0B1E0E0E0F9E102C005900D9247
S1130120A433B107D9F724E0A4E3B3E001C01D92DE
S1130130A730B207E1F710E0C2E8D0E004C021978D
S1130140FE010E94780CC038D107C9F70E9425022D
S11301500C947E0C0C94000081E08093520308956B
S1130160CF93DF9300D000D000D0CDB7DEB7898322
S1130170998190FF02C0289A01C028988A839A81A5
S113018091FF02C0299A01C029988B839B8192FF19
S113019002C05B9A01C05B988C839C8193FF02C070
S11301A05C9A01C05C988D839D8194FF02C05D9A26
S11301B001C05D988E838E8185FF02C05E9A01C066
S11301C05E9826960FB6F894DEBF0FBECDBFDF91C2
S11301D0CF910895806480937C0080917A0080643C
S11301E080937A0080917A0086FDFCCF209178007C
S11301F03091790081E02130324008F480E00895A4
S1130200209A219A539A549A559A569A389839981A
S11302103A983B983C983D9880917A00816080930D
S11302207A0080917A00826080937A0080917A00CB
S1130230846080937A0080917A00806880937A0049
S113024057985F9A5098589A87E00E94EA0041E0D4
S1130250811140E029B130E02095309527FB332708
S113026030F9489B02C090E001C094E0842F880FCD
S1130270832B892B282F082E000C330B3093370344
S113028020933603806190E0909335038093340388
S113029041E060E187E493E00E94D00860E082E0FE
S11302A00E94C90342E050E06CEA70E080E00E94E2
S11302B0350261E087E493E00E94280542E060E0B3
S11302C087E493E00E94F00940E060E087E493E073
S11302D00C94760A86E00E94EA00D82FC1E08823B5
S11302E031F0C0E0113019F480E00E94B000809138
S11302F05203882349F1109252030E94ED02609345
S113030038037093390380933A0390933B0387E453
S113031093E00E94E809833009F057C043E553E0B5
S11303206BE573E087E493E00E94C709D11105C02F
S113033080915A0380933C0302C010923C03809145
S11303403C030E94B000E3CF0E94ED020091380309
S11303501091390320913A0330913B030854144F10
S11303602F4F3F4F061717072807390770F580E00E
S11303700E94B00087E493E00E94B20541E060E08F
S113038087E493E00E94760AF894809152038111E5
S113039011C083B7817F846083BF83B7816083BFCB
S11303A085B7806685BF8F7D85BF7894889583B730
S11303B08E7F83BF789487E493E00E94C30540E076
S11303C060E087E493E00E94760A86B180958F739B
S11303D09C2F9295990F990F907C892B80933F03C2
S11303E0F894409134035091350360E070E0CC24DC
S11303F0C3948FE3E82E83E0F82E08E020E087E43E
S113040093E00E945C0990E090933E0380933D0347
S113041078942FEF81EE94E0215080409040E1F7F2
S113042000C000001C2F56CF6AE087E493E00E94CE
S1130430C8080E94ED0260933803709339038093D7
S11304403A0390933B03089508950E9465030E9424
S113045024020E940001C9EDDBE00E946A0120979A
S1130460E1F30E94D90BF9CF08958230E8F4E82F24
S1130470F0E0EE0FFF1FE050FF4F71836083813087
S113048041F0809169008C7F482B40936900E89A81
S1130490089580916900837F440F551F440F551FB1
S11304A0482B40936900E99A08951F920F920FB662
S11304B00F9211242F933F934F935F936F937F93E6
S11304C08F939F93AF93BF93EF93FF93E0910001BA
S11304D0F09101010995FF91EF91BF91AF919F9127
S11304E08F917F916F915F914F913F912F910F90D9
S11304F00FBE0F901F9018951F920F920FB60F9278
S113050011242F933F934F935F936F937F938F9314
S11305109F93AF93BF93EF93FF93E0910201F09108
S113052003010995FF91EF91BF91AF919F918F9135
S11305307F916F915F914F913F912F910F900FBEDB
S11305400F901F9018951F920F920FB60F921124BF
S11305502F933F938F939F93AF93BF9380915D03AA
S113056090915E03A0915F03B091600330915C03AE
S113057023E0230F2D3720F40196A11DB11D05C0E2
S113058026E8230F0296A11DB11D20935C038093DE
S11305905D0390935E03A0935F03B0936003809127
S11305A0610390916203A0916303B0916403019687
S11305B0A11DB11D8093610390936203A093630313
S11305C0B0936403BF91AF919F918F913F912F910D
S11305D00F900FBE0F901F9018952FB7F89460914D
S11305E05D0370915E0380915F03909160032FBF60
S11305F008953FB7F8948091610390916203A091AC
S11306006303B091640326B5A89B05C02F3F19F07E
S11306100196A11DB11D3FBFBA2FA92F982F88277E
S1130620820F911DA11DB11DBC01CD0142E0660FD9
S1130630771F881F991F4A95D1F708958F929F922B
S1130640AF92BF92CF92DF92EF92FF926B017C0147
S11306500E94F9024B015C01C114D104E104F104CC
S113066001F10E945A0B0E94F902DC01CB018819A6
S11306709909AA09BB09883E9340A105B10560F315
S113068021E0C21AD108E108F10888EE880E83E05F
S1130690981EA11CB11CC114D104E104F10419F782
S11306A0DBCFFF90EF90DF90CF90BF90AF909F9003
S11306B08F9008958230910538F0880F991F880F24
S11306C0991F05970197F1F70895789484B582608E
S11306D084BD84B5816084BD85B5826085BD85B5E2
S11306E0816085BDEEE6F0E0808181608083E1E891
S11306F0F0E01082808182608083808181608083C9
S1130700E0E8F0E0808181608083E1EBF0E08081CB
S113071084608083E0EBF0E0808181608083EAE79D
S1130720F0E0808184608083808182608083808126
S1130730816080838081806880831092C1000895E5
S1130740833081F028F4813099F08230A1F008954B
S11307508730A9F08830B9F08430D1F480918000DA
S11307608F7D03C0809180008F77809380000895EF
S113077084B58F7702C084B58F7D84BD0895809140
S1130780B0008F7703C08091B0008F7D8093B0005C
S11307900895CF93DF9390E0FC01EC53FF4F249135
S11307A0FC01E852FF4F8491882361F190E0880FA7
S11307B0991FFC01EA50FF4FC591D491FC01E4510B
S11307C0FF4FA591B491611109C09FB7F894888136
S11307D0209582238883EC912E230BC0623061F430
S11307E09FB7F8948881322F309583238883EC91C6
S11307F02E2B2C939FBF06C08FB7F894E8812E2B25
S113080028838FBFDF91CF9108951F93CF93DF93F8
S1130810282F30E0F901E055FF4F8491F901EC53A2
S1130820FF4FD491F901E852FF4FC491CC23C1F09A
S1130830162F81110E94A003EC2FF0E0EE0FFF1F92
S1130840E451FF4FA591B4919FB7F894111104C0DE
S11308508C91D095D82302C0EC91DE2BDC939FBF02
S1130860DF91CF911F91089520916703222399F07E
S11308704FB7F89420916703213059F42DB3209396
S113088065033DB320916603209523232DBB4FBF01
S113089002C0409365038CBD9DBD08958EBD0000CC
S11308A00DB407FEFDCF8EB50895809167038823AC
S11308B061F09FB7F894209167038091650321301C
S11308C019F48DBB9FBF08958FBF0895813431F013
S11308D0813531F0813331F080E0089582E8089564
S11308E084E8089581E80895813431F0813531F048
S11308F0813331F080E0089582E4089584E408951A
S113090080E40895CF93DF93EC0180E591E00E94A9
S1130910340460E08E810E94050480EC0E944E0441
S113092061E08E810E9405040E9455046AE070E033
S113093080E090E0DF91CF910C941E031F93CF933E
S1130940DF93EC01162F80E591E00E94340460E00F
S11309508E810E94050483E00E944E04812F0E9430
S11309604E0480E00E944E04182F61E08E810E94A4
S113097005040E945504812FDF91CF911F910895A2
S11309800F931F93CF93DF93EC01062F142F80E571
S113099091E00E94340460E08E810E94050482E0AC
S11309A00E944E04802F0E944E04812F0E944E0408
S11309B061E08E810E940504DF91CF911F910F9118
S11309C00C945504FF920F931F93CF93DF93EC0184
S11309D0F62E042F122F80E591E00E94340460E08B
S11309E08E810E94050485E00E944E048F2D0E9492
S11309F04E04802F0E944E04812F0E944E0461E019
S1130A008E810E940504DF91CF911F910F91FF9079
S1130A100C9455041F93CF93DF93EC0180E591E090
S1130A200E94340460E08E810E94050480EA0E94E2
S1130A304E0480E00E944E04182F61E08E810E94D3
S1130A4005040E945504812FDF91CF911F910895D1
S1130A50611102C020E001C020E440E46BE20C9488
S1130A60E2046EE00E949E04807E0895BF92CF92BD
S1130A70DF92EF92FF920F931F93CF93DF93EC01DA
S1130A80B62E0E94ED026B017C010B2D10E02B2D84
S1130A9040EE6FE0CE010E94E2046EE0CE010E94BF
S1130AA09E04807E90E08017910779F00E94ED0209
S1130AB0DC01CB018C199D09AE09BF09893C910564
S1130AC0A105B10520F381E001C080E0DF91CF9161
S1130AD01F910F91FF90EF90DF90CF90BF900895FA
S1130AE00F931F93CF93DF93EC01162F0E943105D0
S1130AF0803221F5103211F16BE2CE010E949E0486
S1130B00082F007486FD06C020E440E46BE2CE01A9
S1130B100E94E20420E440E46CE2CE010E94E2047C
S1130B2060E6CE010E943605811116C0011106C08F
S1130B3020E040E46BE2CE010E94E20420E040E4C5
S1130B406CE2CE010E94E204612FCE01DF91CF91CD
S1130B501F910F910C94360581E0DF91CF911F9185
S1130B600F910895CF93DF93EC010E9431058032F9
S1130B7031F060E2CE01DF91CF910C94700580E0FA
S1130B80DF91CF910895CF93DF93EC010E9431055B
S1130B906A85861729F0CE01DF91CF910C947005F8
S1130BA080E0DF91CF910895603211F0FC016287FB
S1130BB00C9470050F931F93CF93DF93413021F072
S1130BC0423009F43FC071C0462F50E0FA0131971A
S1130BD0E231F10508F069C0EC5CFF4F0C94780C2D
S1130BE0C7E8DFEF6EC0C7E0DAEB67C0C5E8D1EF56
S1130BF064C0C7E0DEEB49E065C0C7E8DFEF35C09D
S1130C00C7E8DAEF32C0C7E8DFEF36C0C7E0DEEB93
S1130C1033C0C7E0DDEA30C0C7E8DAEF2DC0C6E86C
S1130C20D0EF2AC0C7E8DAEF2EC0C5E8D1EF41E41F
S1130C3049C0C6E8D0EF2EC0C4E0D0EA2BC0C2E859
S1130C40D0ED28C0462F50E0FA013197E231F1058A
S1130C5060F5EA5BFF4F0C94780CC7E0DFEB2DC026
S1130C60C7E0DFEB02C0C4E0D4EA47E02BC0C7E032
S1130C70DFEB02C0C6E0D4EB43E024C0C7E0DFEB07
S1130C8002C0C6E0D4EB41E01DC0C5E0D1EBFBCF10
S1130C90C6E0D4EB40E016C0C5E0D1EBFBCFC2E028
S1130CA0D0E9F8CFC0E0D0E8F5CF81E01AC0C7E8BA
S1130CB0DFEF4FE307C0C7E8DFEF4FE003C0C7E053
S1130CC0DFEB4FE18C016AE20E94C0044D2F69E220
S1130CD0C8010E94C0044C2F68E2C8010E94C004ED
S1130CE080E0DF91CF911F910F9108950F931F938F
S1130CF0CF938C01C0E340E06C2FC8010E94C00474
S1130D0060E16C0F40E0C8010E94C00460E26C0F17
S1130D1040E0C8010E94C004CF5FCE3361F740E0D9
S1130D2060E6C8010E94C00440E060E7C801CF91BA
S1130D301F910F910C94C004FF920F931F93CF93B4
S1130D40DF93EC01062FF42E0E94820460E8CE01AA
S1130D500E947005182F882319F064E071E036C0F2
S1130D606EE171E08AE693E00E949A0B4F2D602FAA
S1130D70CE010E94DA05882319F06CE371E026C0E5
S1130D806EE471E08AE693E00E949A0BCE010E9421
S1130D90760643E06BE2CE010E94C00424E044E600
S1130DA060E6CE010E94E20420E040E660E7CE0166
S1130DB00E94E20460E0CE010E94D405182F88232B
S1130DC019F063E671E002C06EE771E08AE693E031
S1130DD00E949A0B812FDF91CF911F910F91FF9069
S1130DE00895F9018130B1F443835283AB0166273E
S1130DF07727942F9C71842F837028E0929F800D15
S1130E0011248860818365E0569547956A95E1F7DA
S1130E1040830895CA0123E0969587952A95E1F7C2
S1130E2080834295440F407E418313821282089549
S1130E302F923F924F925F926F927F928F929F92E6
S1130E40AF92BF92CF92DF92EF92FF920F931F93D4
S1130E50CF93DF9300D000D01F92CDB7DEB74C0103
S1130E60562E5A01190138014C2CDD8260E0FC0138
S1130E7086810E940504852D0E944E048E010F5F19
S1130E801F4F6E01F5E0CF0ED11C80E00E944E048E
S1130E90F80181938F01EC15FD05B9F72A81398199
S1130EA0822F90E065E0959587956A95E1F7F8E0E3
S1130EB03F9F800D911D1124092E000CAA0BBB0B22
S1130EC0F50180839183A283B383F101108223FF10
S1130ED03AC0F50180819181A281B38132E0880F0B
S1130EE0991FAA1FBB1F3A95D1F72370820F911D3A
S1130EF0A11DB11D80839183A283B38380819181DD
S1130F00A281B381BA2FA92F982F88272B81820F12
S1130F10911DA11DB11D80839183A283B383808120
S1130F209181A281B381BA2FA92F982F88272C8170
S1130F30820F911DA11DB11D80839183A283B38370
S1130F4081E0F101808380E00E944E04982F9F701D
S1130F50F701908386FB882780F9F3018083C42CF2
S1130F60DD8010E0F7018081181750F4183041F04B
S1130F7080E00E944E04F60181936F011F5FF2CF5F
S1130F8061E0F40186810F900F900F900F900F9005
S1130F90DF91CF911F910F91FF90EF90DF90CF9051
S1130FA0BF90AF909F908F907F906F905F904F9085
S1130FB03F902F900C9405041F93CF93DF93EC0183
S1130FC0162F80E591E00E94340460E08E810E9437
S1130FD00504812F0E9466040E944E0461E08E8104
S1130FE00E940504DF91CF911F910C9455044F92F8
S1130FF05F926F927F928F929F92AF92BF92CF92A5
S1131000DF92EF92FF920F931F93CF93DF9300D061
S113101000D0CDB7DEB74C01D62E29013A01862F78
S11310200E947404182FE11002C0F12C02C080E465
S1131030F82E9E012F5F3F4FB301A201802F0E9423
S1131040F10680E591E00E94340460E0F4018681B9
S11310500E940504812F0E944E048E010F5F1F4FD2
S11310603E01F5E06F0E711CF80181918F010E9421
S11310704E0406151705C1F78C2D8F290E944E04C6
S1131080750110E01C1549F0183039F0F701819111
S11310907F010E944E041F5FF5CF61E0F401868159
S11310A00E9405040E9455046D2DC4010E94DC07B2
S11310B00F900F900F900F90DF91CF911F910F9190
S11310C0FF90EF90DF90CF90BF90AF909F908F9064
S11310D07F906F905F904F900895EF92FF920F93DF
S11310E01F93CF938C017B010E940A058475F7013D
S11310F01082843591F1F801918543E050E0491B59
S11311005109E9E1F3E090E0292F30E02417350795
S113111024F5933010F4C08101C0CFEFC823319679
S1131120C11119C0933028F4F901E15EFC4F8081AC
S113113001C080E58F5FF7018083933028F4F901C3
S1131140E45EFC4F408101C040E020E06CE2C80155
S11311500E94E20403C09F5FD7CFC2E08C2FCF91DF
S11311601F910F91FF90EF900895CF93DF93EC01BF
S1131170662359F0862F6E8361E00E94C90361E003
S11311808E81DF91CF910C940504DF91CF91089566
S1131190FC01118629E633E0308727830C94B508D7
S11311A00F931F93CF93DF93EC01162F042F0E940C
S11311B0950A402F612FCE010E949C0691E0811177
S11311C001C090E0892FDF91CF911F910F91089575
S11311D02F923F924F925F926F927F928F929F9243
S11311E0AF92BF92CF92DF92EF92FF920F931F9331
S11311F0CF93DF931F92CDB7DEB74C012A013B0199
S1131200222E302EFA2CFC01418352836383748393
S11312102083058300E010E0BE016F5F7F4FC401AF
S11312200E946D080F5F1F4F823041F40233110595
S113123061F18AE090E00E945A03EECF0233110577
S113124021F15601CE2CE32C022DA30192016981D8
S1131250C4010E94F707FF20B1F000E010E00F5F27
S11312601F4F69816150C4010E949E0483FF08C01E
S11312700233110561F08AE090E00E945A03EFCF37
S11312800233110521F080E003C086E001C087E04D
S11312900F90DF91CF911F910F91FF90EF90DF900E
S11312A0CF90BF90AF909F908F907F906F905F9002
S11312B04F903F902F900895AF92CF92DF92EF928C
S11312C0FF920F93AC2C6701E02E00E00E94E80827
S11312D00F91FF90EF90DF90CF90AF9008956F92B1
S11312E07F928F929F92AF92BF92CF92DF92EF92B2
S11312F0FF920F931F93CF93DF93EC015A0149019F
S1131300380160FF02C060E903C061FF15C064E9F1
S1131310CE010E941807F30180818D83F40180813E
S11313208883F50180819181A281B38189839A8325
S1131330AB83BC8380E003C0F701108284E0DF91BB
S1131340CF911F910F91FF90EF90DF90CF90BF90BE
S1131350AF909F908F907F906F9008950E940A05A0
S1131360382F3B7A83FD02C020E001C024E085FDD4
S113137002C090E001C098E0832F881F8827881F4F
S11313808295807F3370232B922B892B0895CF92E3
S1131390DF92EF92FF920F931F93CF93DF93EC01B1
S11313A07B016A010E94AE098E010B5F1F4FAE01E3
S11313B04F5F5F4F9E01682FCE010E946F09DF913E
S11313C0CF911F910F91FF90EF90DF90CF900895F0
S11313D00E940A05837011F484E0089583E008955F
S11313E00F931F93CF938C01C42F623079F128F4AB
S11313F0662351F06130A9F06CC0633009F448C031
S1131400643009F458C065C0413041F020F04230E6
S1131410D1F424E004C020E044E00FC025E045E01E
S11314200CC0413041F020F0423069F428E004C09F
S113143020E048E002C02AE04AE06CE0C8010E94D3
S1131440E20481E04FC065E572E045C060E80E94B7
S11314507005882319F060E772E03DC0C13021F0C7
S1131460C33029F420E001C021E041E01EC065E55D
S113147072E08AE693E00E949A0BC0E0F80162856C
S1131480C8010E947005882361F169E972E023C0F4
S113149060E80E9470058111DECFC13021F0C330B5
S11314A031F720E001C022E042E06DE0C8010E9473
S11314B0E204C1E0E3CF60E80E9470058111CBCF64
S11314C0C13021F0C33099F620E001C024E044E0AB
S11314D0ECCF67EB72E08AE693E00E949A0B80E01F
S11314E001C08C2FCF911F910F910895662319F09D
S11314F0613061F012C0413011F420E101C020E0FC
S113150040E16CE00E94E20481E00895413011F46E
S113151020E201C020E040E2F4CF66ED72E08AE60A
S113152093E00E949A0B80E00895CF93CFB7F8948C
S113153080916803811127C0E2EEF0E08491EEEC23
S1131540F0E09491E82FF0E0EE0FFF1FEA50FF4F18
S1131550A591B491EC91E92321F461E08AE00E9421
S1131560050461E08AE00E94C9038CB580618CBDEA
S11315708CB580648CBD61E08DE00E94C90361E09C
S11315808BE00E94C903809168038F5F8093680396
S1131590CFBFCF9108951F920F920FB60F921124CF
S11315A02F938F939F93EF93FF93E0917A03F0919E
S11315B07B038081E0918003F091810382FD12C05E
S11315C09081809183038F5F8F73209184038217AE
S11315D051F0E0918303F0E0E659FC4F958F80933E
S11315E0830301C08081FF91EF919F918F912F918F
S11315F00F900FBE0F901F9018951F920F920FB669
S11316000F9211242F933F934F935F936F937F9384
S11316108F939F93AF93BF93EF93FF938AE693E0E7
S11316200E94E70BFF91EF91BF91AF919F918F9132
S11316307F916F915F914F913F912F910F900FBECA
S11316400F901F9018958AE693E00E949C0B21E06E
S1131650892B09F420E0822F0895EAE6F3E013824F
S1131660128288EE93E0A0E0B0E084839583A683A1
S1131670B78386E293E09183808385EC90E095873D
S1131680848784EC90E09787868780EC90E0918B48
S1131690808B81EC90E0938B828B82EC90E0958B35
S11316A0848B86EC90E0978B868B118E128E138E32
S11316B0148E08950895CF92DF92EF92FF920F93C4
S11316C01F93CF93DF936C017A018B01C0E0D0E0CC
S11316D0CE15DF0581F0D8016D918D01D601ED9114
S11316E0FC910190F081E02DC6010995892B11F040
S11316F02196EECF7E01C701DF91CF911F910F910B
S1131700FF90EF90DF90CF9008956115710579F007
S1131710FB0101900020E9F73197AF01461B570BFD
S1131720DC01ED91FC910280F381E02D099480E0CD
S113173090E008950C94850BFC01918D228D892FE6
S113174090E0805C9F4F821B91098F7399270895C5
S1131750FC01918D828D981731F0828DE80FF11D77
S1131760858D90E008958FEF9FEF0895FC01918D92
S1131770828D981761F0828DDF01A80FB11D5D96EF
S11317808C91928D9F5F9F73928F90E008958FEF5D
S11317909FEF0895FC01538D448D252F30E0842F55
S11317A090E0821B930B541710F0CF960895019785
S11317B0089583E29BE0892B49F080E090E0892B37
S11317C029F00E94230B81110C9400000895FC0160
S11317D0848DDF01A80FB11DA35ABF4F2C91848DB6
S11317E090E001968F739927848FA689B7892C93EB
S11317F0A089B1898C91837080648C93938D848D3E
S1131800981306C00288F389E02D80818F7D808340
S11318100895EF92FF920F931F93CF93DF93EC0100
S113182081E0888F9B8D8C8D981305C0E889F98998
S1131830808185FD26C0F62E0B8D10E00F5F1F4FB3
S11318400F731127E02E8C8DE8120CC00FB607FC25
S1131850FACFE889F989808185FFF5CFCE010E940E
S1131860E70BF1CF8B8DFE01E80FF11DE35AFF4F1B
S1131870F0829FB7F8940B8FEA89FB89808180629C
S11318800AC09FB7F894EE89FF896083E889F989D3
S113189080818370806480839FBF81E090E0DF91CA
S11318A0CF911F910F91FF90EF900895CF93DF9305
S11318B0EC01888D8823C9F0EA89FB89808185FD44
S11318C005C0A889B9898C9186FD0FC00FB607FCA5
S11318D0F5CF808185FFF2CFA889B9898C9185FFE6
S11318E0EDCFCE010E94E70BE7CFDF91CF910895B2
S11318F0EE0FFF1F0590F491E02D0994F894FFCFAB
S113190034023402456E7465722073657474696EB2
S113191067206D6F6465206661696C0D0A00456E11
S11319207465722073657474696E67206D6F646585
S11319302073756363657373200D0A0073657420E7
S1131940726174652066616C6C21210D0A007365F7
S113195074207261746520737563636573732121E8
S11319600D0A00456E746572204E6F726D616C20B5
S11319704D6F6465204661696C21210D0A00456E36
S1131980746572204E6F726D616C204D6F646520BA
S11319905375636365737321210D0A00426567699A
S11319A06E20746F20736574204D61736B21210D5B
S11319B00A00456E7465722073657474696E6720DD
S11319C06D6F64652066616C6C0D0A00456E74650C
S11319D072206E6F726D616C206D6F64652066613C
S11319E06C6C0D0A00736574204D61736B20737504
S11319F0636365737321210D0A00426567696E2074
S1131A00746F207365742046696C74657221210DAE
S1131A100A00456E746572206E6F726D616C206D84
S1131A206F64652066616C6C0D0A53657420666989
S1131A306C746572206661696C21210D0A007365FE
S1131A40742046696C74657220737563636573737F
S1131A5021210D0A00496E76616C69642070696EFB
S1131A60206D6F646520726571756573740D0A006D
S1131A70456E746572696E6720436F6E666967753B
S1131A80726174696F6E204D6F6465204661696C84
S1131A907572652E2E2E0D0A006053657474696E7E
S1131AA067204944204D6F6465204661696C7572F6
S1131AB0652E2E2E0D0A00496E76616C69642070C5
S1131AC0696E20666F72206D6F6465207265717532
S1131AD06573740D0A00496E76616C6964207069DF
S1131AE06E20666F72206D63704469676974616CFF
S1131AF057726974650D0A00496E76616C696420D9
S1131B0070696E20666F72206D63704469676974D2
S1131B10616C526561640D0A0004104004081030C1
S1131B20405000000000090C5B0BCA0B560C9C0BC8
S1071B30B60BA80B39
S9030000FC
